{
	"contracts/BlockchainChat.sol": {
		"BlockchainChat": {
			"abi": [
				{
					"inputs": [],
					"name": "getMessages",
					"outputs": [
						{
							"components": [
								{
									"internalType": "address",
									"name": "waver",
									"type": "address"
								},
								{
									"internalType": "string",
									"name": "content",
									"type": "string"
								},
								{
									"internalType": "uint256",
									"name": "timestamp",
									"type": "uint256"
								}
							],
							"internalType": "struct BlockchainChat.Message[]",
							"name": "",
							"type": "tuple[]"
						}
					],
					"stateMutability": "view",
					"type": "function"
				},
				{
					"inputs": [
						{
							"internalType": "string",
							"name": "_content",
							"type": "string"
						}
					],
					"name": "sendMessage",
					"outputs": [],
					"stateMutability": "nonpayable",
					"type": "function"
				}
			],
			"devdoc": {
				"kind": "dev",
				"methods": {},
				"version": 1
			},
			"evm": {
				"assembly": "    /* \"contracts/BlockchainChat.sol\":55:372  contract BlockchainChat {... */\n  mstore(0x40, 0x80)\n  callvalue\n  dup1\n  iszero\n  tag_1\n  jumpi\n  0x00\n  dup1\n  revert\ntag_1:\n  pop\n  dataSize(sub_0)\n  dup1\n  dataOffset(sub_0)\n  0x00\n  codecopy\n  0x00\n  return\nstop\n\nsub_0: assembly {\n        /* \"contracts/BlockchainChat.sol\":55:372  contract BlockchainChat {... */\n      mstore(0x40, 0x80)\n      callvalue\n      dup1\n      iszero\n      tag_1\n      jumpi\n      0x00\n      dup1\n      revert\n    tag_1:\n      pop\n      jumpi(tag_2, lt(calldatasize, 0x04))\n      shr(0xe0, calldataload(0x00))\n      dup1\n      0x469c8110\n      eq\n      tag_3\n      jumpi\n      dup1\n      0x5ff6cbf3\n      eq\n      tag_4\n      jumpi\n    tag_2:\n      0x00\n      dup1\n      revert\n        /* \"contracts/BlockchainChat.sol\":167:287  function sendMessage(string calldata _content) public {... */\n    tag_3:\n      tag_5\n      tag_6\n      calldatasize\n      0x04\n      tag_7\n      jump\t// in\n    tag_6:\n      tag_8\n      jump\t// in\n    tag_5:\n      stop\n        /* \"contracts/BlockchainChat.sol\":288:370  function getMessages() view public returns (Message[] memory) {... */\n    tag_4:\n      tag_9\n      tag_10\n      jump\t// in\n    tag_9:\n      mload(0x40)\n      tag_11\n      swap2\n      swap1\n      tag_12\n      jump\t// in\n    tag_11:\n      mload(0x40)\n      dup1\n      swap2\n      sub\n      swap1\n      return\n        /* \"contracts/BlockchainChat.sol\":167:287  function sendMessage(string calldata _content) public {... */\n    tag_8:\n        /* \"contracts/BlockchainChat.sol\":223:231  messages */\n      0x00\n        /* \"contracts/BlockchainChat.sol\":237:283  Message(msg.sender, _content, block.timestamp) */\n      mload(0x40)\n      dup1\n      0x60\n      add\n      0x40\n      mstore\n      dup1\n        /* \"contracts/BlockchainChat.sol\":245:255  msg.sender */\n      caller\n      sub(shl(0xa0, 0x01), 0x01)\n        /* \"contracts/BlockchainChat.sol\":237:283  Message(msg.sender, _content, block.timestamp) */\n      and\n      dup2\n      mstore\n      0x20\n      add\n        /* \"contracts/BlockchainChat.sol\":257:265  _content */\n      dup5\n      dup5\n        /* \"contracts/BlockchainChat.sol\":237:283  Message(msg.sender, _content, block.timestamp) */\n      dup1\n      dup1\n      0x1f\n      add\n      0x20\n      dup1\n      swap2\n      div\n      mul\n      0x20\n      add\n      mload(0x40)\n      swap1\n      dup2\n      add\n      0x40\n      mstore\n      dup1\n      swap4\n      swap3\n      swap2\n      swap1\n      dup2\n      dup2\n      mstore\n      0x20\n      add\n      dup4\n      dup4\n      dup1\n      dup3\n      dup5\n      calldatacopy\n      0x00\n      swap3\n      add\n      dup3\n      swap1\n      mstore\n      pop\n      swap4\n      dup6\n      mstore\n      pop\n      pop\n        /* \"contracts/BlockchainChat.sol\":267:282  block.timestamp */\n      timestamp\n        /* \"contracts/BlockchainChat.sol\":237:283  Message(msg.sender, _content, block.timestamp) */\n      0x20\n      swap4\n      dup5\n      add\n      mstore\n      pop\n        /* \"contracts/BlockchainChat.sol\":223:284  messages.push(Message(msg.sender, _content, block.timestamp)) */\n      dup4\n      sload\n      0x01\n      dup1\n      dup3\n      add\n      dup7\n      sstore\n      swap5\n      dup3\n      mstore\n      swap1\n      dup3\n      swap1\n      keccak256\n      dup4\n      mload\n      0x03\n      swap1\n      swap3\n      mul\n      add\n      dup1\n      sload\n      not(sub(shl(0xa0, 0x01), 0x01))\n      and\n      sub(shl(0xa0, 0x01), 0x01)\n      swap1\n      swap3\n      and\n      swap2\n      swap1\n      swap2\n      or\n      dup2\n      sstore\n      dup3\n      dup3\n      add\n      mload\n      dup1\n      mload\n      swap4\n      swap5\n      swap2\n      swap4\n      tag_15\n      swap4\n      swap3\n      dup6\n      add\n      swap3\n      swap2\n      swap1\n      swap2\n      add\n      swap1\n      tag_16\n      jump\t// in\n    tag_15:\n      pop\n      0x40\n      dup3\n      add\n      mload\n      dup2\n      0x02\n      add\n      sstore\n      pop\n      pop\n        /* \"contracts/BlockchainChat.sol\":167:287  function sendMessage(string calldata _content) public {... */\n      pop\n      pop\n      jump\t// out\n        /* \"contracts/BlockchainChat.sol\":288:370  function getMessages() view public returns (Message[] memory) {... */\n    tag_10:\n        /* \"contracts/BlockchainChat.sol\":332:348  Message[] memory */\n      0x60\n        /* \"contracts/BlockchainChat.sol\":359:367  messages */\n      0x00\n        /* \"contracts/BlockchainChat.sol\":352:367  return messages */\n      dup1\n      sload\n      dup1\n      0x20\n      mul\n      0x20\n      add\n      mload(0x40)\n      swap1\n      dup2\n      add\n      0x40\n      mstore\n      dup1\n      swap3\n      swap2\n      swap1\n      dup2\n      dup2\n      mstore\n      0x20\n      add\n      0x00\n      swap1\n    tag_18:\n      dup3\n      dup3\n      lt\n      iszero\n      tag_19\n      jumpi\n      0x00\n      dup5\n      dup2\n      mstore\n      0x20\n      swap1\n      dup2\n      swap1\n      keccak256\n      0x40\n      dup1\n      mload\n      0x60\n      dup2\n      add\n      swap1\n      swap2\n      mstore\n      0x03\n      dup6\n      mul\n      swap1\n      swap2\n      add\n      dup1\n      sload\n      sub(shl(0xa0, 0x01), 0x01)\n      and\n      dup3\n      mstore\n      0x01\n      dup2\n      add\n      dup1\n      sload\n      swap3\n      swap4\n      swap2\n      swap3\n      swap2\n      dup5\n      add\n      swap2\n      tag_21\n      swap1\n      tag_22\n      jump\t// in\n    tag_21:\n      dup1\n      0x1f\n      add\n      0x20\n      dup1\n      swap2\n      div\n      mul\n      0x20\n      add\n      mload(0x40)\n      swap1\n      dup2\n      add\n      0x40\n      mstore\n      dup1\n      swap3\n      swap2\n      swap1\n      dup2\n      dup2\n      mstore\n      0x20\n      add\n      dup3\n      dup1\n      sload\n      tag_23\n      swap1\n      tag_22\n      jump\t// in\n    tag_23:\n      dup1\n      iszero\n      tag_24\n      jumpi\n      dup1\n      0x1f\n      lt\n      tag_25\n      jumpi\n      0x0100\n      dup1\n      dup4\n      sload\n      div\n      mul\n      dup4\n      mstore\n      swap2\n      0x20\n      add\n      swap2\n      jump(tag_24)\n    tag_25:\n      dup3\n      add\n      swap2\n      swap1\n      0x00\n      mstore\n      keccak256(0x00, 0x20)\n      swap1\n    tag_26:\n      dup2\n      sload\n      dup2\n      mstore\n      swap1\n      0x01\n      add\n      swap1\n      0x20\n      add\n      dup1\n      dup4\n      gt\n      tag_26\n      jumpi\n      dup3\n      swap1\n      sub\n      0x1f\n      and\n      dup3\n      add\n      swap2\n    tag_24:\n      pop\n      pop\n      pop\n      pop\n      pop\n      dup2\n      mstore\n      0x20\n      add\n      0x02\n      dup3\n      add\n      sload\n      dup2\n      mstore\n      pop\n      pop\n      dup2\n      mstore\n      0x20\n      add\n      swap1\n      0x01\n      add\n      swap1\n      jump(tag_18)\n    tag_19:\n      pop\n      pop\n      pop\n      pop\n      swap1\n      pop\n        /* \"contracts/BlockchainChat.sol\":288:370  function getMessages() view public returns (Message[] memory) {... */\n      swap1\n      jump\t// out\n    tag_16:\n      dup3\n      dup1\n      sload\n      tag_27\n      swap1\n      tag_22\n      jump\t// in\n    tag_27:\n      swap1\n      0x00\n      mstore\n      keccak256(0x00, 0x20)\n      swap1\n      0x1f\n      add\n      0x20\n      swap1\n      div\n      dup2\n      add\n      swap3\n      dup3\n      tag_29\n      jumpi\n      0x00\n      dup6\n      sstore\n      jump(tag_32)\n    tag_29:\n      dup3\n      0x1f\n      lt\n      tag_30\n      jumpi\n      dup1\n      mload\n      not(0xff)\n      and\n      dup4\n      dup1\n      add\n      or\n      dup6\n      sstore\n      jump(tag_32)\n    tag_30:\n      dup3\n      dup1\n      add\n      0x01\n      add\n      dup6\n      sstore\n      dup3\n      iszero\n      tag_32\n      jumpi\n      swap2\n      dup3\n      add\n    tag_31:\n      dup3\n      dup2\n      gt\n      iszero\n      tag_32\n      jumpi\n      dup3\n      mload\n      dup3\n      sstore\n      swap2\n      0x20\n      add\n      swap2\n      swap1\n      0x01\n      add\n      swap1\n      jump(tag_31)\n    tag_32:\n      pop\n      tag_33\n      swap3\n      swap2\n      pop\n      tag_34\n      jump\t// in\n    tag_33:\n      pop\n      swap1\n      jump\t// out\n    tag_34:\n    tag_35:\n      dup1\n      dup3\n      gt\n      iszero\n      tag_33\n      jumpi\n      0x00\n      dup2\n      sstore\n      0x01\n      add\n      jump(tag_35)\n        /* \"#utility.yul\":14:606   */\n    tag_7:\n        /* \"#utility.yul\":85:91   */\n      0x00\n        /* \"#utility.yul\":93:99   */\n      dup1\n        /* \"#utility.yul\":146:148   */\n      0x20\n        /* \"#utility.yul\":134:143   */\n      dup4\n        /* \"#utility.yul\":125:132   */\n      dup6\n        /* \"#utility.yul\":121:144   */\n      sub\n        /* \"#utility.yul\":117:149   */\n      slt\n        /* \"#utility.yul\":114:166   */\n      iszero\n      tag_39\n      jumpi\n        /* \"#utility.yul\":162:163   */\n      0x00\n        /* \"#utility.yul\":159:160   */\n      dup1\n        /* \"#utility.yul\":152:164   */\n      revert\n        /* \"#utility.yul\":114:166   */\n    tag_39:\n        /* \"#utility.yul\":202:211   */\n      dup3\n        /* \"#utility.yul\":189:212   */\n      calldataload\n        /* \"#utility.yul\":231:249   */\n      0xffffffffffffffff\n        /* \"#utility.yul\":272:274   */\n      dup1\n        /* \"#utility.yul\":264:270   */\n      dup3\n        /* \"#utility.yul\":261:275   */\n      gt\n        /* \"#utility.yul\":258:292   */\n      iszero\n      tag_40\n      jumpi\n        /* \"#utility.yul\":288:289   */\n      0x00\n        /* \"#utility.yul\":285:286   */\n      dup1\n        /* \"#utility.yul\":278:290   */\n      revert\n        /* \"#utility.yul\":258:292   */\n    tag_40:\n        /* \"#utility.yul\":326:332   */\n      dup2\n        /* \"#utility.yul\":315:324   */\n      dup6\n        /* \"#utility.yul\":311:333   */\n      add\n        /* \"#utility.yul\":301:333   */\n      swap2\n      pop\n        /* \"#utility.yul\":371:378   */\n      dup6\n        /* \"#utility.yul\":364:368   */\n      0x1f\n        /* \"#utility.yul\":360:362   */\n      dup4\n        /* \"#utility.yul\":356:369   */\n      add\n        /* \"#utility.yul\":352:379   */\n      slt\n        /* \"#utility.yul\":342:397   */\n      tag_41\n      jumpi\n        /* \"#utility.yul\":393:394   */\n      0x00\n        /* \"#utility.yul\":390:391   */\n      dup1\n        /* \"#utility.yul\":383:395   */\n      revert\n        /* \"#utility.yul\":342:397   */\n    tag_41:\n        /* \"#utility.yul\":433:435   */\n      dup2\n        /* \"#utility.yul\":420:436   */\n      calldataload\n        /* \"#utility.yul\":459:461   */\n      dup2\n        /* \"#utility.yul\":451:457   */\n      dup2\n        /* \"#utility.yul\":448:462   */\n      gt\n        /* \"#utility.yul\":445:479   */\n      iszero\n      tag_42\n      jumpi\n        /* \"#utility.yul\":475:476   */\n      0x00\n        /* \"#utility.yul\":472:473   */\n      dup1\n        /* \"#utility.yul\":465:477   */\n      revert\n        /* \"#utility.yul\":445:479   */\n    tag_42:\n        /* \"#utility.yul\":520:527   */\n      dup7\n        /* \"#utility.yul\":515:517   */\n      0x20\n        /* \"#utility.yul\":506:512   */\n      dup3\n        /* \"#utility.yul\":502:504   */\n      dup6\n        /* \"#utility.yul\":498:513   */\n      add\n        /* \"#utility.yul\":494:518   */\n      add\n        /* \"#utility.yul\":491:528   */\n      gt\n        /* \"#utility.yul\":488:545   */\n      iszero\n      tag_43\n      jumpi\n        /* \"#utility.yul\":541:542   */\n      0x00\n        /* \"#utility.yul\":538:539   */\n      dup1\n        /* \"#utility.yul\":531:543   */\n      revert\n        /* \"#utility.yul\":488:545   */\n    tag_43:\n        /* \"#utility.yul\":572:574   */\n      0x20\n        /* \"#utility.yul\":564:575   */\n      swap3\n      swap1\n      swap3\n      add\n      swap7\n        /* \"#utility.yul\":594:600   */\n      swap2\n      swap6\n      pop\n        /* \"#utility.yul\":14:606   */\n      swap1\n      swap4\n      pop\n      pop\n      pop\n      pop\n      jump\t// out\n        /* \"#utility.yul\":611:2194   */\n    tag_12:\n        /* \"#utility.yul\":797:801   */\n      0x00\n        /* \"#utility.yul\":826:828   */\n      0x20\n        /* \"#utility.yul\":866:868   */\n      dup1\n        /* \"#utility.yul\":855:864   */\n      dup4\n        /* \"#utility.yul\":851:869   */\n      add\n        /* \"#utility.yul\":896:898   */\n      dup2\n        /* \"#utility.yul\":885:894   */\n      dup5\n        /* \"#utility.yul\":878:899   */\n      mstore\n        /* \"#utility.yul\":919:925   */\n      dup1\n        /* \"#utility.yul\":954:960   */\n      dup6\n        /* \"#utility.yul\":948:961   */\n      mload\n        /* \"#utility.yul\":985:991   */\n      dup1\n        /* \"#utility.yul\":977:983   */\n      dup4\n        /* \"#utility.yul\":970:992   */\n      mstore\n        /* \"#utility.yul\":1011:1013   */\n      0x40\n        /* \"#utility.yul\":1001:1013   */\n      swap3\n      pop\n        /* \"#utility.yul\":1044:1046   */\n      dup3\n        /* \"#utility.yul\":1033:1042   */\n      dup7\n        /* \"#utility.yul\":1029:1047   */\n      add\n        /* \"#utility.yul\":1022:1047   */\n      swap2\n      pop\n        /* \"#utility.yul\":1106:1108   */\n      dup3\n        /* \"#utility.yul\":1096:1102   */\n      dup2\n        /* \"#utility.yul\":1093:1094   */\n      0x05\n        /* \"#utility.yul\":1089:1103   */\n      shl\n        /* \"#utility.yul\":1078:1087   */\n      dup8\n        /* \"#utility.yul\":1074:1104   */\n      add\n        /* \"#utility.yul\":1070:1109   */\n      add\n        /* \"#utility.yul\":1144:1146   */\n      dup5\n        /* \"#utility.yul\":1136:1142   */\n      dup9\n        /* \"#utility.yul\":1132:1147   */\n      add\n        /* \"#utility.yul\":1165:1166   */\n      0x00\n        /* \"#utility.yul\":1186:1187   */\n      dup1\n        /* \"#utility.yul\":1196:2165   */\n    tag_45:\n        /* \"#utility.yul\":1212:1218   */\n      dup5\n        /* \"#utility.yul\":1207:1210   */\n      dup2\n        /* \"#utility.yul\":1204:1219   */\n      lt\n        /* \"#utility.yul\":1196:2165   */\n      iszero\n      tag_47\n      jumpi\n        /* \"#utility.yul\":1281:1303   */\n      dup10\n      dup5\n      sub\n      not(0x3f)\n        /* \"#utility.yul\":1277:1313   */\n      add\n        /* \"#utility.yul\":1265:1314   */\n      dup7\n      mstore\n        /* \"#utility.yul\":1337:1350   */\n      dup3\n      mload\n        /* \"#utility.yul\":1409:1418   */\n      dup1\n      mload\n      sub(shl(0xa0, 0x01), 0x01)\n        /* \"#utility.yul\":1405:1440   */\n      and\n        /* \"#utility.yul\":1390:1441   */\n      dup6\n      mstore\n        /* \"#utility.yul\":1480:1491   */\n      dup9\n      dup2\n      add\n        /* \"#utility.yul\":1474:1492   */\n      mload\n        /* \"#utility.yul\":1373:1377   */\n      0x60\n        /* \"#utility.yul\":1512:1527   */\n      dup11\n      dup8\n      add\n        /* \"#utility.yul\":1505:1532   */\n      dup2\n      swap1\n      mstore\n        /* \"#utility.yul\":1561:1580   */\n      dup2\n      mload\n        /* \"#utility.yul\":1600:1615   */\n      swap1\n      dup8\n      add\n        /* \"#utility.yul\":1593:1626   */\n      dup2\n      swap1\n      mstore\n        /* \"#utility.yul\":1650:1651   */\n      dup5\n      swap2\n        /* \"#utility.yul\":1474:1492   */\n      swap1\n        /* \"#utility.yul\":1664:1832   */\n    tag_48:\n        /* \"#utility.yul\":1680:1688   */\n      dup1\n        /* \"#utility.yul\":1675:1678   */\n      dup4\n        /* \"#utility.yul\":1672:1689   */\n      lt\n        /* \"#utility.yul\":1664:1832   */\n      iszero\n      tag_50\n      jumpi\n        /* \"#utility.yul\":1789:1811   */\n      dup2\n      dup4\n      add\n        /* \"#utility.yul\":1785:1816   */\n      dup13\n      add\n        /* \"#utility.yul\":1779:1817   */\n      mload\n        /* \"#utility.yul\":1755:1771   */\n      dup9\n      dup5\n      add\n        /* \"#utility.yul\":1773:1776   */\n      0x80\n        /* \"#utility.yul\":1751:1777   */\n      add\n        /* \"#utility.yul\":1744:1818   */\n      mstore\n        /* \"#utility.yul\":1699:1711   */\n      swap2\n      dup12\n      add\n      swap2\n        /* \"#utility.yul\":1664:1832   */\n      jump(tag_48)\n    tag_50:\n        /* \"#utility.yul\":1856:1864   */\n      dup1\n        /* \"#utility.yul\":1851:1854   */\n      dup4\n        /* \"#utility.yul\":1848:1865   */\n      gt\n        /* \"#utility.yul\":1845:1952   */\n      iszero\n      tag_51\n      jumpi\n        /* \"#utility.yul\":1936:1937   */\n      dup6\n        /* \"#utility.yul\":1930:1933   */\n      0x80\n        /* \"#utility.yul\":1919:1927   */\n      dup3\n        /* \"#utility.yul\":1911:1917   */\n      dup11\n        /* \"#utility.yul\":1907:1928   */\n      add\n        /* \"#utility.yul\":1903:1934   */\n      add\n        /* \"#utility.yul\":1896:1938   */\n      mstore\n        /* \"#utility.yul\":1845:1952   */\n    tag_51:\n        /* \"#utility.yul\":1995:2006   */\n      swap3\n      dup11\n      add\n        /* \"#utility.yul\":1989:2007   */\n      mload\n        /* \"#utility.yul\":1972:1987   */\n      dup8\n      dup12\n      add\n        /* \"#utility.yul\":1965:2008   */\n      mstore\n      pop\n      pop\n        /* \"#utility.yul\":2143:2155   */\n      swap6\n      dup9\n      add\n      swap6\n        /* \"#utility.yul\":2074:2076   */\n      0x1f\n        /* \"#utility.yul\":2051:2068   */\n      add\n      not(0x1f)\n        /* \"#utility.yul\":2047:2078   */\n      and\n        /* \"#utility.yul\":2035:2079   */\n      swap1\n      swap4\n      add\n        /* \"#utility.yul\":2081:2084   */\n      0x80\n        /* \"#utility.yul\":2031:2085   */\n      add\n      swap3\n        /* \"#utility.yul\":2108:2123   */\n      swap2\n      dup8\n      add\n      swap2\n        /* \"#utility.yul\":1238:1239   */\n      0x01\n        /* \"#utility.yul\":1229:1240   */\n      add\n        /* \"#utility.yul\":1196:2165   */\n      jump(tag_45)\n    tag_47:\n      pop\n        /* \"#utility.yul\":2182:2188   */\n      swap2\n      swap10\n        /* \"#utility.yul\":611:2194   */\n      swap9\n      pop\n      pop\n      pop\n      pop\n      pop\n      pop\n      pop\n      pop\n      pop\n      jump\t// out\n        /* \"#utility.yul\":2199:2579   */\n    tag_22:\n        /* \"#utility.yul\":2278:2279   */\n      0x01\n        /* \"#utility.yul\":2274:2286   */\n      dup2\n      dup2\n      shr\n      swap1\n        /* \"#utility.yul\":2321:2333   */\n      dup3\n      and\n      dup1\n        /* \"#utility.yul\":2342:2403   */\n      tag_53\n      jumpi\n        /* \"#utility.yul\":2396:2400   */\n      0x7f\n        /* \"#utility.yul\":2388:2394   */\n      dup3\n        /* \"#utility.yul\":2384:2401   */\n      and\n        /* \"#utility.yul\":2374:2401   */\n      swap2\n      pop\n        /* \"#utility.yul\":2342:2403   */\n    tag_53:\n        /* \"#utility.yul\":2449:2451   */\n      0x20\n        /* \"#utility.yul\":2441:2447   */\n      dup3\n        /* \"#utility.yul\":2438:2452   */\n      lt\n        /* \"#utility.yul\":2418:2436   */\n      dup2\n        /* \"#utility.yul\":2415:2453   */\n      eq\n        /* \"#utility.yul\":2412:2573   */\n      iszero\n      tag_54\n      jumpi\n        /* \"#utility.yul\":2495:2505   */\n      0x4e487b71\n        /* \"#utility.yul\":2490:2493   */\n      0xe0\n        /* \"#utility.yul\":2486:2506   */\n      shl\n        /* \"#utility.yul\":2483:2484   */\n      0x00\n        /* \"#utility.yul\":2476:2507   */\n      mstore\n        /* \"#utility.yul\":2530:2534   */\n      0x22\n        /* \"#utility.yul\":2527:2528   */\n      0x04\n        /* \"#utility.yul\":2520:2535   */\n      mstore\n        /* \"#utility.yul\":2558:2562   */\n      0x24\n        /* \"#utility.yul\":2555:2556   */\n      0x00\n        /* \"#utility.yul\":2548:2563   */\n      revert\n        /* \"#utility.yul\":2412:2573   */\n    tag_54:\n      pop\n        /* \"#utility.yul\":2199:2579   */\n      swap2\n      swap1\n      pop\n      jump\t// out\n\n    auxdata: 0xa2646970667358221220b10c7d5ce94e8469601fcb6c48211c750b452b19e4fdd204ec431486a105db5264736f6c634300080c0033\n}\n",
				"bytecode": {
					"linkReferences": {},
					"object": "608060405234801561001057600080fd5b5061047e806100206000396000f3fe608060405234801561001057600080fd5b50600436106100365760003560e01c8063469c81101461003b5780635ff6cbf314610050575b600080fd5b61004e6100493660046102d5565b61006e565b005b61005861012b565b6040516100659190610347565b60405180910390f35b60006040518060600160405280336001600160a01b0316815260200184848080601f01602080910402602001604051908101604052809392919081815260200183838082843760009201829052509385525050426020938401525083546001808201865594825290829020835160039092020180546001600160a01b0319166001600160a01b039092169190911781558282015180519394919361011a9392850192919091019061023c565b506040820151816002015550505050565b60606000805480602002602001604051908101604052809291908181526020016000905b8282101561023357600084815260209081902060408051606081019091526003850290910180546001600160a01b0316825260018101805492939192918401916101989061040d565b80601f01602080910402602001604051908101604052809291908181526020018280546101c49061040d565b80156102115780601f106101e657610100808354040283529160200191610211565b820191906000526020600020905b8154815290600101906020018083116101f457829003601f168201915b505050505081526020016002820154815250508152602001906001019061014f565b50505050905090565b8280546102489061040d565b90600052602060002090601f01602090048101928261026a57600085556102b0565b82601f1061028357805160ff19168380011785556102b0565b828001600101855582156102b0579182015b828111156102b0578251825591602001919060010190610295565b506102bc9291506102c0565b5090565b5b808211156102bc57600081556001016102c1565b600080602083850312156102e857600080fd5b823567ffffffffffffffff8082111561030057600080fd5b818501915085601f83011261031457600080fd5b81358181111561032357600080fd5b86602082850101111561033557600080fd5b60209290920196919550909350505050565b60006020808301818452808551808352604092508286019150828160051b8701018488016000805b848110156103fe57898403603f19018652825180516001600160a01b031685528881015160608a870181905281519087018190528491905b808310156103c5578183018c015188840160800152918b01916103a7565b808311156103d657856080828a0101525b928a0151878b0152505095880195601f01601f1916909301608001929187019160010161036f565b50919998505050505050505050565b600181811c9082168061042157607f821691505b6020821081141561044257634e487b7160e01b600052602260045260246000fd5b5091905056fea2646970667358221220b10c7d5ce94e8469601fcb6c48211c750b452b19e4fdd204ec431486a105db5264736f6c634300080c0033",
					"opcodes": "PUSH1 0x80 PUSH1 0x40 MSTORE CALLVALUE DUP1 ISZERO PUSH2 0x10 JUMPI PUSH1 0x0 DUP1 REVERT JUMPDEST POP PUSH2 0x47E DUP1 PUSH2 0x20 PUSH1 0x0 CODECOPY PUSH1 0x0 RETURN INVALID PUSH1 0x80 PUSH1 0x40 MSTORE CALLVALUE DUP1 ISZERO PUSH2 0x10 JUMPI PUSH1 0x0 DUP1 REVERT JUMPDEST POP PUSH1 0x4 CALLDATASIZE LT PUSH2 0x36 JUMPI PUSH1 0x0 CALLDATALOAD PUSH1 0xE0 SHR DUP1 PUSH4 0x469C8110 EQ PUSH2 0x3B JUMPI DUP1 PUSH4 0x5FF6CBF3 EQ PUSH2 0x50 JUMPI JUMPDEST PUSH1 0x0 DUP1 REVERT JUMPDEST PUSH2 0x4E PUSH2 0x49 CALLDATASIZE PUSH1 0x4 PUSH2 0x2D5 JUMP JUMPDEST PUSH2 0x6E JUMP JUMPDEST STOP JUMPDEST PUSH2 0x58 PUSH2 0x12B JUMP JUMPDEST PUSH1 0x40 MLOAD PUSH2 0x65 SWAP2 SWAP1 PUSH2 0x347 JUMP JUMPDEST PUSH1 0x40 MLOAD DUP1 SWAP2 SUB SWAP1 RETURN JUMPDEST PUSH1 0x0 PUSH1 0x40 MLOAD DUP1 PUSH1 0x60 ADD PUSH1 0x40 MSTORE DUP1 CALLER PUSH1 0x1 PUSH1 0x1 PUSH1 0xA0 SHL SUB AND DUP2 MSTORE PUSH1 0x20 ADD DUP5 DUP5 DUP1 DUP1 PUSH1 0x1F ADD PUSH1 0x20 DUP1 SWAP2 DIV MUL PUSH1 0x20 ADD PUSH1 0x40 MLOAD SWAP1 DUP2 ADD PUSH1 0x40 MSTORE DUP1 SWAP4 SWAP3 SWAP2 SWAP1 DUP2 DUP2 MSTORE PUSH1 0x20 ADD DUP4 DUP4 DUP1 DUP3 DUP5 CALLDATACOPY PUSH1 0x0 SWAP3 ADD DUP3 SWAP1 MSTORE POP SWAP4 DUP6 MSTORE POP POP TIMESTAMP PUSH1 0x20 SWAP4 DUP5 ADD MSTORE POP DUP4 SLOAD PUSH1 0x1 DUP1 DUP3 ADD DUP7 SSTORE SWAP5 DUP3 MSTORE SWAP1 DUP3 SWAP1 KECCAK256 DUP4 MLOAD PUSH1 0x3 SWAP1 SWAP3 MUL ADD DUP1 SLOAD PUSH1 0x1 PUSH1 0x1 PUSH1 0xA0 SHL SUB NOT AND PUSH1 0x1 PUSH1 0x1 PUSH1 0xA0 SHL SUB SWAP1 SWAP3 AND SWAP2 SWAP1 SWAP2 OR DUP2 SSTORE DUP3 DUP3 ADD MLOAD DUP1 MLOAD SWAP4 SWAP5 SWAP2 SWAP4 PUSH2 0x11A SWAP4 SWAP3 DUP6 ADD SWAP3 SWAP2 SWAP1 SWAP2 ADD SWAP1 PUSH2 0x23C JUMP JUMPDEST POP PUSH1 0x40 DUP3 ADD MLOAD DUP2 PUSH1 0x2 ADD SSTORE POP POP POP POP JUMP JUMPDEST PUSH1 0x60 PUSH1 0x0 DUP1 SLOAD DUP1 PUSH1 0x20 MUL PUSH1 0x20 ADD PUSH1 0x40 MLOAD SWAP1 DUP2 ADD PUSH1 0x40 MSTORE DUP1 SWAP3 SWAP2 SWAP1 DUP2 DUP2 MSTORE PUSH1 0x20 ADD PUSH1 0x0 SWAP1 JUMPDEST DUP3 DUP3 LT ISZERO PUSH2 0x233 JUMPI PUSH1 0x0 DUP5 DUP2 MSTORE PUSH1 0x20 SWAP1 DUP2 SWAP1 KECCAK256 PUSH1 0x40 DUP1 MLOAD PUSH1 0x60 DUP2 ADD SWAP1 SWAP2 MSTORE PUSH1 0x3 DUP6 MUL SWAP1 SWAP2 ADD DUP1 SLOAD PUSH1 0x1 PUSH1 0x1 PUSH1 0xA0 SHL SUB AND DUP3 MSTORE PUSH1 0x1 DUP2 ADD DUP1 SLOAD SWAP3 SWAP4 SWAP2 SWAP3 SWAP2 DUP5 ADD SWAP2 PUSH2 0x198 SWAP1 PUSH2 0x40D JUMP JUMPDEST DUP1 PUSH1 0x1F ADD PUSH1 0x20 DUP1 SWAP2 DIV MUL PUSH1 0x20 ADD PUSH1 0x40 MLOAD SWAP1 DUP2 ADD PUSH1 0x40 MSTORE DUP1 SWAP3 SWAP2 SWAP1 DUP2 DUP2 MSTORE PUSH1 0x20 ADD DUP3 DUP1 SLOAD PUSH2 0x1C4 SWAP1 PUSH2 0x40D JUMP JUMPDEST DUP1 ISZERO PUSH2 0x211 JUMPI DUP1 PUSH1 0x1F LT PUSH2 0x1E6 JUMPI PUSH2 0x100 DUP1 DUP4 SLOAD DIV MUL DUP4 MSTORE SWAP2 PUSH1 0x20 ADD SWAP2 PUSH2 0x211 JUMP JUMPDEST DUP3 ADD SWAP2 SWAP1 PUSH1 0x0 MSTORE PUSH1 0x20 PUSH1 0x0 KECCAK256 SWAP1 JUMPDEST DUP2 SLOAD DUP2 MSTORE SWAP1 PUSH1 0x1 ADD SWAP1 PUSH1 0x20 ADD DUP1 DUP4 GT PUSH2 0x1F4 JUMPI DUP3 SWAP1 SUB PUSH1 0x1F AND DUP3 ADD SWAP2 JUMPDEST POP POP POP POP POP DUP2 MSTORE PUSH1 0x20 ADD PUSH1 0x2 DUP3 ADD SLOAD DUP2 MSTORE POP POP DUP2 MSTORE PUSH1 0x20 ADD SWAP1 PUSH1 0x1 ADD SWAP1 PUSH2 0x14F JUMP JUMPDEST POP POP POP POP SWAP1 POP SWAP1 JUMP JUMPDEST DUP3 DUP1 SLOAD PUSH2 0x248 SWAP1 PUSH2 0x40D JUMP JUMPDEST SWAP1 PUSH1 0x0 MSTORE PUSH1 0x20 PUSH1 0x0 KECCAK256 SWAP1 PUSH1 0x1F ADD PUSH1 0x20 SWAP1 DIV DUP2 ADD SWAP3 DUP3 PUSH2 0x26A JUMPI PUSH1 0x0 DUP6 SSTORE PUSH2 0x2B0 JUMP JUMPDEST DUP3 PUSH1 0x1F LT PUSH2 0x283 JUMPI DUP1 MLOAD PUSH1 0xFF NOT AND DUP4 DUP1 ADD OR DUP6 SSTORE PUSH2 0x2B0 JUMP JUMPDEST DUP3 DUP1 ADD PUSH1 0x1 ADD DUP6 SSTORE DUP3 ISZERO PUSH2 0x2B0 JUMPI SWAP2 DUP3 ADD JUMPDEST DUP3 DUP2 GT ISZERO PUSH2 0x2B0 JUMPI DUP3 MLOAD DUP3 SSTORE SWAP2 PUSH1 0x20 ADD SWAP2 SWAP1 PUSH1 0x1 ADD SWAP1 PUSH2 0x295 JUMP JUMPDEST POP PUSH2 0x2BC SWAP3 SWAP2 POP PUSH2 0x2C0 JUMP JUMPDEST POP SWAP1 JUMP JUMPDEST JUMPDEST DUP1 DUP3 GT ISZERO PUSH2 0x2BC JUMPI PUSH1 0x0 DUP2 SSTORE PUSH1 0x1 ADD PUSH2 0x2C1 JUMP JUMPDEST PUSH1 0x0 DUP1 PUSH1 0x20 DUP4 DUP6 SUB SLT ISZERO PUSH2 0x2E8 JUMPI PUSH1 0x0 DUP1 REVERT JUMPDEST DUP3 CALLDATALOAD PUSH8 0xFFFFFFFFFFFFFFFF DUP1 DUP3 GT ISZERO PUSH2 0x300 JUMPI PUSH1 0x0 DUP1 REVERT JUMPDEST DUP2 DUP6 ADD SWAP2 POP DUP6 PUSH1 0x1F DUP4 ADD SLT PUSH2 0x314 JUMPI PUSH1 0x0 DUP1 REVERT JUMPDEST DUP2 CALLDATALOAD DUP2 DUP2 GT ISZERO PUSH2 0x323 JUMPI PUSH1 0x0 DUP1 REVERT JUMPDEST DUP7 PUSH1 0x20 DUP3 DUP6 ADD ADD GT ISZERO PUSH2 0x335 JUMPI PUSH1 0x0 DUP1 REVERT JUMPDEST PUSH1 0x20 SWAP3 SWAP1 SWAP3 ADD SWAP7 SWAP2 SWAP6 POP SWAP1 SWAP4 POP POP POP POP JUMP JUMPDEST PUSH1 0x0 PUSH1 0x20 DUP1 DUP4 ADD DUP2 DUP5 MSTORE DUP1 DUP6 MLOAD DUP1 DUP4 MSTORE PUSH1 0x40 SWAP3 POP DUP3 DUP7 ADD SWAP2 POP DUP3 DUP2 PUSH1 0x5 SHL DUP8 ADD ADD DUP5 DUP9 ADD PUSH1 0x0 DUP1 JUMPDEST DUP5 DUP2 LT ISZERO PUSH2 0x3FE JUMPI DUP10 DUP5 SUB PUSH1 0x3F NOT ADD DUP7 MSTORE DUP3 MLOAD DUP1 MLOAD PUSH1 0x1 PUSH1 0x1 PUSH1 0xA0 SHL SUB AND DUP6 MSTORE DUP9 DUP2 ADD MLOAD PUSH1 0x60 DUP11 DUP8 ADD DUP2 SWAP1 MSTORE DUP2 MLOAD SWAP1 DUP8 ADD DUP2 SWAP1 MSTORE DUP5 SWAP2 SWAP1 JUMPDEST DUP1 DUP4 LT ISZERO PUSH2 0x3C5 JUMPI DUP2 DUP4 ADD DUP13 ADD MLOAD DUP9 DUP5 ADD PUSH1 0x80 ADD MSTORE SWAP2 DUP12 ADD SWAP2 PUSH2 0x3A7 JUMP JUMPDEST DUP1 DUP4 GT ISZERO PUSH2 0x3D6 JUMPI DUP6 PUSH1 0x80 DUP3 DUP11 ADD ADD MSTORE JUMPDEST SWAP3 DUP11 ADD MLOAD DUP8 DUP12 ADD MSTORE POP POP SWAP6 DUP9 ADD SWAP6 PUSH1 0x1F ADD PUSH1 0x1F NOT AND SWAP1 SWAP4 ADD PUSH1 0x80 ADD SWAP3 SWAP2 DUP8 ADD SWAP2 PUSH1 0x1 ADD PUSH2 0x36F JUMP JUMPDEST POP SWAP2 SWAP10 SWAP9 POP POP POP POP POP POP POP POP POP JUMP JUMPDEST PUSH1 0x1 DUP2 DUP2 SHR SWAP1 DUP3 AND DUP1 PUSH2 0x421 JUMPI PUSH1 0x7F DUP3 AND SWAP2 POP JUMPDEST PUSH1 0x20 DUP3 LT DUP2 EQ ISZERO PUSH2 0x442 JUMPI PUSH4 0x4E487B71 PUSH1 0xE0 SHL PUSH1 0x0 MSTORE PUSH1 0x22 PUSH1 0x4 MSTORE PUSH1 0x24 PUSH1 0x0 REVERT JUMPDEST POP SWAP2 SWAP1 POP JUMP INVALID LOG2 PUSH5 0x6970667358 0x22 SLT KECCAK256 0xB1 0xC PUSH30 0x5CE94E8469601FCB6C48211C750B452B19E4FDD204EC431486A105DB5264 PUSH20 0x6F6C634300080C00330000000000000000000000 "
				},
				"gasEstimates": {
					"creation": {
						"codeDepositCost": "230000",
						"executionCost": "269",
						"totalCost": "230269"
					},
					"external": {
						"getMessages()": "infinite",
						"sendMessage(string)": "infinite"
					}
				},
				"methodIdentifiers": {
					"getMessages()": "5ff6cbf3",
					"sendMessage(string)": "469c8110"
				}
			},
			"storageLayout": {
				"storage": [
					{
						"astId": 12,
						"contract": "contracts/BlockchainChat.sol:BlockchainChat",
						"label": "messages",
						"offset": 0,
						"slot": "0",
						"type": "t_array(t_struct(Message)8_storage)dyn_storage"
					}
				],
				"types": {
					"t_address": {
						"encoding": "inplace",
						"label": "address",
						"numberOfBytes": "20"
					},
					"t_array(t_struct(Message)8_storage)dyn_storage": {
						"base": "t_struct(Message)8_storage",
						"encoding": "dynamic_array",
						"label": "struct BlockchainChat.Message[]",
						"numberOfBytes": "32"
					},
					"t_string_storage": {
						"encoding": "bytes",
						"label": "string",
						"numberOfBytes": "32"
					},
					"t_struct(Message)8_storage": {
						"encoding": "inplace",
						"label": "struct BlockchainChat.Message",
						"members": [
							{
								"astId": 3,
								"contract": "contracts/BlockchainChat.sol:BlockchainChat",
								"label": "waver",
								"offset": 0,
								"slot": "0",
								"type": "t_address"
							},
							{
								"astId": 5,
								"contract": "contracts/BlockchainChat.sol:BlockchainChat",
								"label": "content",
								"offset": 0,
								"slot": "1",
								"type": "t_string_storage"
							},
							{
								"astId": 7,
								"contract": "contracts/BlockchainChat.sol:BlockchainChat",
								"label": "timestamp",
								"offset": 0,
								"slot": "2",
								"type": "t_uint256"
							}
						],
						"numberOfBytes": "96"
					},
					"t_uint256": {
						"encoding": "inplace",
						"label": "uint256",
						"numberOfBytes": "32"
					}
				}
			},
			"userdoc": {
				"kind": "user",
				"methods": {},
				"version": 1
			}
		}
	}
}